{
  "_format": "hh3-artifact-1",
  "contractName": "ChainlinkPrice",
  "sourceName": "contracts/ChainlinkPrice.sol",
  "abi": [
    {
      "inputs": [
        {
          "internalType": "address",
          "name": "_priceFeed",
          "type": "address"
        }
      ],
      "stateMutability": "nonpayable",
      "type": "constructor"
    },
    {
      "inputs": [],
      "name": "getLatestPrice",
      "outputs": [
        {
          "internalType": "int256",
          "name": "",
          "type": "int256"
        }
      ],
      "stateMutability": "view",
      "type": "function"
    },
    {
      "inputs": [],
      "name": "getLatestPrice1e18",
      "outputs": [
        {
          "internalType": "uint256",
          "name": "",
          "type": "uint256"
        }
      ],
      "stateMutability": "view",
      "type": "function"
    },
    {
      "inputs": [],
      "name": "priceFeed",
      "outputs": [
        {
          "internalType": "contract IAggregatorV3",
          "name": "",
          "type": "address"
        }
      ],
      "stateMutability": "view",
      "type": "function"
    }
  ],
  "bytecode": "0x6080604052348015600e575f5ffd5b50604051610644380380610644833981016040819052602b91604e565b5f80546001600160a01b0319166001600160a01b03929092169190911790556079565b5f60208284031215605d575f5ffd5b81516001600160a01b03811681146072575f5ffd5b9392505050565b6105be806100865f395ff3fe608060405234801561000f575f5ffd5b506004361061003f575f3560e01c80630809822114610043578063741bef1a1461005e5780638e15f47314610088575b5f5ffd5b61004b610090565b6040519081526020015b60405180910390f35b5f54610070906001600160a01b031681565b6040516001600160a01b039091168152602001610055565b61004b61027c565b5f5f5f5f5f9054906101000a90046001600160a01b03166001600160a01b031663feaf968c6040518163ffffffff1660e01b815260040160a060405180830381865afa1580156100e2573d5f5f3e3d5ffd5b505050506040513d601f19601f8201168201806040525081019061010691906103a6565b509350509250505f82136101525760405162461bcd60e51b815260206004820152600e60248201526d34b73b30b634b21030b739bbb2b960911b60448201526064015b60405180910390fd5b61015f6201518042610408565b811161019b5760405162461bcd60e51b815260206004820152600b60248201526a7374616c6520707269636560a81b6044820152606401610149565b5f5f5f9054906101000a90046001600160a01b03166001600160a01b031663313ce5676040518163ffffffff1660e01b8152600401602060405180830381865afa1580156101eb573d5f5f3e3d5ffd5b505050506040513d601f19601f8201168201806040525081019061020f9190610421565b905082601260ff8316101561024557610229826012610448565b61023490600a610544565b61023e9082610552565b9050610274565b60128260ff1611156102745761025c601283610448565b61026790600a610544565b6102719082610569565b90505b949350505050565b5f5f5f5f5f9054906101000a90046001600160a01b03166001600160a01b031663feaf968c6040518163ffffffff1660e01b815260040160a060405180830381865afa1580156102ce573d5f5f3e3d5ffd5b505050506040513d601f19601f820116820180604052508101906102f291906103a6565b509350509250505f82136103395760405162461bcd60e51b815260206004820152600e60248201526d34b73b30b634b21030b739bbb2b960911b6044820152606401610149565b6103466201518042610408565b81116103825760405162461bcd60e51b815260206004820152600b60248201526a7374616c6520707269636560a81b6044820152606401610149565b50919050565b805169ffffffffffffffffffff811681146103a1575f5ffd5b919050565b5f5f5f5f5f60a086880312156103ba575f5ffd5b6103c386610388565b602087015160408801516060890151929750909550935091506103e860808701610388565b90509295509295909350565b634e487b7160e01b5f52601160045260245ffd5b8181038181111561041b5761041b6103f4565b92915050565b5f60208284031215610431575f5ffd5b815160ff81168114610441575f5ffd5b9392505050565b60ff828116828216039081111561041b5761041b6103f4565b6001815b600184111561049c57808504811115610480576104806103f4565b600184161561048e57908102905b60019390931c928002610465565b935093915050565b5f826104b25750600161041b565b816104be57505f61041b565b81600181146104d457600281146104de576104fa565b600191505061041b565b60ff8411156104ef576104ef6103f4565b50506001821b61041b565b5060208310610133831016604e8410600b841016171561051d575081810a61041b565b6105295f198484610461565b805f190482111561053c5761053c6103f4565b029392505050565b5f61044160ff8416836104a4565b808202811582820484141761041b5761041b6103f4565b5f8261058357634e487b7160e01b5f52601260045260245ffd5b50049056fea2646970667358221220b7fc3d205abb5fe00741cf6df934308278fe9f0d3bf0164bdf1be555cb10dcf564736f6c634300081e0033",
  "linkReferences": {},
  "deployedLinkReferences": {},
  "immutableReferences": {},
  "inputSourceName": "project/contracts/ChainlinkPrice.sol",
  "buildInfoId": "solc-0_8_30-8b333e0b210099c30b97d55d0c531ae78e590dc4"
}